:100000000C9450000C945A000C945A000C945A0012
:100010000C945A000C945A000C945A000C945A00F8
:100020000C945A000C945A000C945A000C945A00E8
:100030000C945A000C945A000C945A000C945A00D8
:100040000C945A000C945A000C945A000C945A00C8
:100050000C945A000C945A000C945A000C945A00B8
:100060000C945A000C945A000C945A000C945A00A8
:100070000C945A000C945A000C945A000C945A0098
:100080000C945A000C945A000C945A000C945A0088
:100090000C945A000C945A000C945A000C945A0078
:1000A00011241FBECFEFCDBFDFE3DEBF0E945C0097
:1000B0000C9473000C940000E0EAF4E0808180620C
:1000C000808384818F7D84832AE28CE29AE02150B0
:1000D00080409040E1F70000E0EAF4E0948180E2A3
:0A00E00089278483F1CFF894FFCF45
:00000001FF
